S0170000616439383333696E746572666163652E73726563C0
S11300000C94FE000C9412010C9412010C94120135
S11300100C9412010C9412010C9412010C94120110
S11300200C9412010C9412010C9412010C94120100
S11300300C9412010C9412010C9412010C941201F0
S11300400C9412010C9412010C9412010C941201E0
S11300500C9412010C9412010C9412010C941201D0
S11300600C9412010C9412010C9412010C941201C0
S11300700C9412010C9412010C9412010C941201B0
S11300800C9412010C9412010C9412010C941201A0
S11300900C9412010C9412010C9412010C94120190
S11300A00C9412010C9412010C9412010C94120180
S11300B00C9412010C9412010C9412010C94120170
S11300C00C9412010C9412010C9412010C94120160
S11300D00C9412010C9412010C9412010C94120150
S11300E00C9412010C9412010C9412010C94120140
S11300F00C9412010C9412010C9412010C94120130
S11301000C9412010C9412010C9412010C9412011F
S11301100C9412010C9412010C9412010C9412010F
S11301200C9412010C9412010C9412010C941201FF
S11301300C9412010C9412010C9412010C941201EF
S11301400C9412010C9412010C9412010C941201DF
S11301500C9412010C9412010C9412010C941201CF
S11301600C9412010C9412010C9412010C941201BF
S11301700C9412010C9412010C9412010C941201AF
S11301800C9412010C9412010C9412010C9412019F
S11301900C9412010C9412010C9412010C9412018F
S11301A00C9412010C9412010C9412010C9412017F
S11301B00C9412010C9412010C9412010C9412016F
S11301C00C9412010C9412010C9412010C9412015F
S11301D00C9412010C9412010C9412010C9412014F
S11301E00C9412010C9412010C9412010C9412013F
S11301F00C9412010C9412010C94120111241FBED0
S1130200CFEFCDBFDFE5DEBF00E00CBF21E2A0E011
S1130210B0E201C01D92A339B207E1F70E94750252
S11302200C94FE040C940000FC01878190E09C0176
S1130230220F331F9681892F90E0880F991F880F12
S1130240991F880F991F822B932B258140E2249FAD
S113025090011124822B932B228540E4249F90014A
S11302601124822B932B238540E8249F9001112491
S1130270822B932B2481922B218530E0322F22274D
S1130280330F330F822B932B208530E0322F22271C
S1130290330F330F330F822B932B238130E0322F14
S11302A022273295307F822B932B228130E0322F0C
S11302B022273295330F307E822B932B80839183B8
S11302C00E9412030895CF92DF92EF92FF92CF9390
S11302D0DF93EC016A017B010E94070318821982F3
S11302E081E08A831B821C821D828E831886198674
S11302F01A861B8688EE93E0A0E0B0E0888B998B89
S1130300AA8BBB8B1E8A1F8AC88ED98EEA8EFB8E5F
S1130310C701B6010E94D20320E030E040E851E377
S11303200E9460046C8F7D8F8E8F9F8FCE010E9400
S11303301401DF91CF91FF90EF90DF90CF9008955B
S1130340613069F018F0623029F00DC0FC011582AB
S1130350178209C021E0FC012583178204C0FC0137
S1130360158221E027830E9414010895CF93DF931F
S1130370EC0188899989AA89BB8984179507A607FE
S1130380B70709F44BC0CB01BA01688B798B8A8B10
S11303909B8B0E94D2032C8D3D8D4E8D5F8D0E94D0
S11303A031030E94A3036C877D878E879F8781E03A
S11303B08887CE010E9414018C859D859F7390646B
S11303C00E9412038C859D85AE85BF85072E7EE035
S11303D0B695A795979587957A95D1F7702D9F73C4
S11303E090640E9412038C859D859F7390680E947F
S11303F012038C859D85AE85BF85072E7EE0B6955C
S1130400A795979587957A95D1F7702D9F739068E6
S11304100E9412031886CE010E941401DF91CF912D
S113042008951F93CF93DF93FC01268937892617FC
S1130430370709F445C0AB01EC016E8B7F8B9B0140
S1130440A3E8BDE20E94EF040024880F991F001C5A
S1130450880F991F001C892F902D68E671E0869FF4
S11304609001879F300D969F300D1124CA01821B85
S1130470930B71F0BC0180E090E00E94D20320E075
S113048030E044EB5DE30E9431030E94A30302C009
S113049060E070E06C8B7D8B11E01987CE010E94C7
S11304A014018C899D899F71906C0E9412038C8920
S11304B09D89906E0E9412031987CE010E94140137
S11304C0DF91CF911F91089581E080930206E0E0CF
S11304D0F2E098E0918390E1928390E4938397E033
S11304E0948380A311A280830895CF93DF93CDB723
S11304F0DEB7A097CDBFDEBF83EF91E00197F1F7A0
S113050000C0000040E458E76DE771E0CE010196B9
S11305100E9463010E94640260E0CE0101960E9481
S1130520A00160E070E0CE0101960E94110241E05A
S113053050E060E070E0CE0101960E94B601C12C4B
S11305406894DD24D1F803E010E2772473940F2E2D
S1130550F3E9EF2EF1E2FF2EF02D0F2EF8EC2F2E03
S1130560312C412C512CF02DF60183A180FFFCCFBE
S113057084A195A1F80180839183F60173A2E3E03D
S1130580F0E240E050E0BA0181919191480F591F87
S1130590611D711DEE16FF06B9F7CB01BA01A20168
S11305A091010E94CD0449015A018091012090914A
S11305B00220A0E0B0E0281739074A075B0741F0A2
S11305C0809100208F5F809300208B30B0F003C0B7
S11305D01092002012C0BA01A9014E5B51096109B1
S11305E07048440F551F661F771FCE0101960E9465
S11305F0B6018092012090920220E1E9F1E2929109
S11306008291828393830E171F07C9F7ADCFE0E66B
S1130610F6E092E0918384E081839583858381E091
S113062081830895BC0184E0809366062FE030E066
S1130630E0E6F6E081E092E0AB01022E02C05695BE
S113064047950A94E2F740FF02C0858301C0868380
S1130650968395832150310978F784E08093650669
S113066008950E9445030C9426040E941F0458F028
S11306700E94180440F029F45F3F29F00C940F0401
S113068051110C945A040C9415040E94370468F315
S11306909923B1F3552391F3951B550BBB27AA2737
S11306A062177307840738F09F5F5F4F220F331F71
S11306B0441FAA1FA9F335D00E2E3AF0E0E832D039
S11306C091505040E695001CCAF72BD0FE2F29D03C
S11306D0660F771F881FBB1F261737074807AB070E
S11306E0B0E809F0BB0B802DBF01FF2793585F4F83
S11306F03AF09E3F510578F00C940F040C945A0480
S11307005F3FE4F3983ED4F3869577956795B79564
S1130710F7959F5FC9F7880F911D9695879597F96F
S11307200895E1E0660F771F881FBB1F62177307E8
S11307308407BA0720F0621B730B840BBA0BEE1FFD
S113074088F7E09508950E943F0488F09F5798F039
S1130750B92F9927B751B0F0E1F0660F771F881FC2
S1130760991F1AF0BA95C9F714C0B13091F00E94DC
S11307705904B1E008950C945904672F782F882701
S1130780B85F39F0B93FCCF3869577956795B39503
S1130790D9F73EF490958095709561957F4F8F4F72
S11307A09F4F0895E89409C097FB3EF49095809577
S11307B0709561957F4F8F4F9F4F9923A9F0F92F23
S11307C096E9BB279395F695879577956795B795A1
S11307D0F111F8CFFAF4BB0F11F460FF1BC06F5F87
S11307E07F4F8F4F9F4F16C0882311F096E911C099
S11307F0772321F09EE8872F762F05C0662371F0BA
S113080096E8862F70E060E02AF09A95660F771FCD
S1130810881FDAF7880F9695879597F9089597F9C1
S11308209F6780E870E060E008959FEF80EC089592
S113083000240A94161617061806090608950024BB
S11308400A9412161306140605060895092E039435
S1130850000C11F4882352F0BB0F40F4BF2B11F4A9
S113086060FF04C06F5F7F4F8F4F9F4F089557FD08
S11308709058440F551F59F05F3F71F04795880F0A
S113088097FB991F61F09F3F79F0879508951216A1
S113089013061406551FF2CF4695F1DF08C016164D
S11308A017061806991FF1CF8695710561050894FE
S11308B00895E894BB2766277727CB0197F9089515
S11308C00E9473040C9426040E94180438F00E94B9
S11308D01F0420F0952311F00C940F040C941504BC
S11308E011240C945A040E94370470F3959FC1F3A9
S11308F0950F50E0551F629FF001729FBB27F00DCA
S1130900B11D639FAA27F00DB11DAA1F649F66271E
S1130910B00DA11D661F829F2227B00DA11D621F6D
S1130920739FB00DA11D621F839FA00D611D221F27
S1130930749F3327A00D611D231F849F600D211D0B
S1130940822F762F6A2F11249F5750409AF0F1F08E
S113095088234AF0EE0FFF1FBB1F661F771F881FF7
S113096091505040A9F79E3F510580F00C940F041C
S11309700C945A045F3FE4F3983ED4F3869577953C
S11309806795B795F795E7959F5FC1F7FE2B880F9D
S1130990911D9695879597F90895A1E21A2EAA1BA1
S11309A0BB1BFD010DC0AA1FBB1FEE1FFF1FA2171B
S11309B0B307E407F50720F0A21BB30BE40BF50B18
S11309C0661F771F881F991F1A9469F760957095A1
S11309D0809590959B01AC01BD01CF010895A29F24
S11309E0B001B39FC001A39F700D811D1124911DFF
S11309F0B29F700D811D1124911D0895F894FFCFAD
S9030000FC
