S0170000616439383333696E746572666163652E73726563C0
S11300000C94FE000C940A010C940A010C940A014D
S11300100C940A010C940A010C940A010C940A0130
S11300200C940A010C940A010C940A010C940A0120
S11300300C940A010C940A010C940A010C940A0110
S11300400C940A010C940A010C940A010C940A0100
S11300500C940A010C940A010C940A010C940A01F0
S11300600C940A010C940A010C940A010C940A01E0
S11300700C940A010C940A010C940A010C940A01D0
S11300800C940A010C940A010C940A010C940A01C0
S11300900C940A010C940A010C940A010C940A01B0
S11300A00C940A010C940A010C940A010C940A01A0
S11300B00C940A010C940A010C940A010C940A0190
S11300C00C940A010C940A010C940A010C940A0180
S11300D00C940A010C940A010C940A010C940A0170
S11300E00C940A010C940A010C940A010C940A0160
S11300F00C940A010C940A010C940A010C940A0150
S11301000C940A010C940A010C940A010C940A013F
S11301100C940A010C940A010C940A010C940A012F
S11301200C940A010C940A010C940A010C940A011F
S11301300C940A010C940A010C940A010C940A010F
S11301400C940A010C940A010C940A010C940A01FF
S11301500C940A010C940A010C940A010C940A01EF
S11301600C940A010C940A010C940A010C940A01DF
S11301700C940A010C940A010C940A010C940A01CF
S11301800C940A010C940A010C940A010C940A01BF
S11301900C940A010C940A010C940A010C940A01AF
S11301A00C940A010C940A010C940A010C940A019F
S11301B00C940A010C940A010C940A010C940A018F
S11301C00C940A010C940A010C940A010C940A017F
S11301D00C940A010C940A010C940A010C940A016F
S11301E00C940A010C940A010C940A010C940A015F
S11301F00C940A010C940A010C940A0111241FBEE8
S1130200CFEFCDBFDFE5DEBF00E00CBF0E94C90128
S11302100C947D030C940000CF93DF93EC01CB018D
S1130220BA010E94EF02288D398D4A8D5B8D0E94A0
S11302304E020E94C0026C877D878E879F87CB0108
S11302409F7390640E9428028C859D85AE85BF852E
S1130250072E7EE0B695A795979587957A95D1F761
S1130260702D9F7390680E942802DF91CF910895AA
S1130270FC01878190E09C01220F331F9681892F16
S113028090E0880F991F880F991F880F991F822B60
S1130290932B258140E2249F90011124822B932BE0
S11302A0228540E4249F90011124822B932B2385E3
S11302B040E8249F90011124822B932B2481922BBC
S11302C0218530E0322F2227330F330F822B932BDB
S11302D0208530E0322F2227330F330F330F822B48
S11302E0932B238130E0322F22273295307F822BCB
S11302F0932B228130E0322F22273295330F307E28
S1130300822B932B808391830E9428020895CF939C
S1130310DF93EC010E941D021882198281E08A8316
S11303201B821C821D828E83188619861A861B8660
S11303308C899D89AE89BF89BC01CD01052E5CE104
S113034096958795779567955A95D1F7502D0E9484
S1130350EF02688F798F8A8F9B8FCE010E943801BC
S1130360DF91CF910895613069F018F0623029F07F
S11303700DC0FC011582178209C021E0FC01258310
S1130380178204C0FC01158221E027830E943801F2
S11303900895CF93DF93CDB7DEB76C97CDBFDEBFA3
S11303A083EF91E00197F1F700C00000CE010196C0
S11303B00E9487019FE72AE186E091502040804017
S11303C0E1F700C0000044E650E060E070E0CE01D8
S11303D001960E940C0161E0CE0101960E94B301D6
S11303E09FE72AE186E0915020408040E1F700C079
S11303F0000048EE53E060E070E0CE0101960E94F8
S11304000C0162E0CE0101960E94B3019FE72AE14C
S113041086E0915020408040E1F700C0000040E1B8
S113042057E260E070E0CE0101960E940C0160E0AA
S1130430CE0101960E94B301BDCFE0E6F6E092E062
S1130440918384E081839583858381E0818308950A
S1130450CF93DF93DC0184E08093660690E06FE045
S113046070E0E0E6F6E031E022E09F5FAB01491B7B
S11304705109ED0102C0D695C7954A95E2F7C0FF30
S113048002C0358301C03683268325839111EDCFC5
S113049084E080936506DF91CF9108950E94620203
S11304A00C9443030E943C0358F00E94350340F02F
S11304B029F45F3F29F00C942C0351110C94770319
S11304C00C9432030E94540368F39923B1F3552327
S11304D091F3951B550BBB27AA2762177307840753
S11304E038F09F5F5F4F220F331F441FAA1FA9F3E9
S11304F035D00E2E3AF0E0E832D091505040E695D7
S1130500001CCAF72BD0FE2F29D0660F771F881F37
S1130510BB1F261737074807AB07B0E809F0BB0B2A
S1130520802DBF01FF2793585F4F3AF09E3F51053E
S113053078F00C942C030C9477035F3FE4F3983E1B
S1130540D4F3869577956795B795F7959F5FC9F727
S1130550880F911D9695879597F90895E1E0660FA8
S1130560771F881FBB1F621773078407BA0720F021
S1130570621B730B840BBA0BEE1F88F7E09508958A
S11305800E945C0388F09F5798F0B92F9927B751C0
S1130590B0F0E1F0660F771F881F991F1AF0BA9523
S11305A0C9F714C0B13091F00E947603B1E0089508
S11305B00C947603672F782F8827B85F39F0B93FFA
S11305C0CCF3869577956795B395D9F73EF49095D6
S11305D08095709561957F4F8F4F9F4F0895E89454
S11305E009C097FB3EF490958095709561957F4F77
S11305F08F4F9F4F9923A9F0F92F96E9BB27939525
S1130600F695879577956795B795F111F8CFFAF434
S1130610BB0F11F460FF1BC06F5F7F4F8F4F9F4F65
S113062016C0882311F096E911C0772321F09EE8C3
S1130630872F762F05C0662371F096E8862F70E029
S113064060E02AF09A95660F771F881FDAF7880F03
S11306509695879597F9089597F99F6780E870E0D4
S113066060E008959FEF80EC089500240A94161624
S1130670170618060906089500240A94121613068C
S1130680140605060895092E0394000C11F488231A
S113069052F0BB0F40F4BF2B11F460FF04C06F5F36
S11306A07F4F8F4F9F4F089557FD9058440F551F0C
S11306B059F05F3F71F04795880F97FB991F61F0E0
S11306C09F3F79F087950895121613061406551F57
S11306D0F2CF4695F1DF08C0161617061806991FC3
S11306E0F1CF86957105610508940895E894BB27B8
S11106F066277727CB0197F90895F894FFCF7A
S9030000FC
