:100000000C94FE000C941F010C941F010C941F0112
:100010000C941F010C941F010C941F010C941F01E0
:100020000C941F010C941F010C941F010C941F01D0
:100030000C941F010C941F010C941F010C941F01C0
:100040000C941F010C941F010C941F010C941F01B0
:100050000C941F010C941F010C941F010C941F01A0
:100060000C941F010C941F010C941F010C941F0190
:100070000C941F010C941F010C941F010C941F0180
:100080000C941F010C941F010C941F010C941F0170
:100090000C941F010C941F010C941F010C941F0160
:1000A0000C941F010C941F010C941F010C941F0150
:1000B0000C941F010C941F010C941F010C941F0140
:1000C0000C941F010C941F010C941F010C941F0130
:1000D0000C941F010C941F010C941F010C941F0120
:1000E0000C941F010C941F010C941F010C941F0110
:1000F0000C941F010C941F010C941F010C941F0100
:100100000C941F010C941F010C941F010C941F01EF
:100110000C941F010C941F010C941F010C941F01DF
:100120000C941F010C941F010C941F010C941F01CF
:100130000C941F010C941F010C941F010C941F01BF
:100140000C941F010C941F010C941F010C941F01AF
:100150000C941F010C941F010C941F010C941F019F
:100160000C941F010C941F010C941F010C941F018F
:100170000C941F010C941F010C941F010C941F017F
:100180000C941F010C941F010C941F010C941F016F
:100190000C941F010C941F010C941F010C941F015F
:1001A0000C941F010C941F010C941F010C941F014F
:1001B0000C941F010C941F010C941F010C941F013F
:1001C0000C941F010C941F010C941F010C941F012F
:1001D0000C941F010C941F010C941F010C94AE028F
:1001E0000C94D6020C941F010C941F010C941F0157
:1001F0000C941F010C941F010C941F0111241FBEAD
:10020000CFEFCDBFDFE5DEBF00E00CBF10E2A0E026
:10021000B0E2E8E8F9E000E00BBF02C007900D9201
:10022000A030B107D9F720E2A0E0B0E201C01D92F2
:10023000A53DB207E1F70E9423020C94C2040C947E
:100240000000FC01878190E09C01220F331F968102
:10025000892F90E0880F991F880F991F880F991F89
:10026000822B932B258140E2249F90011124822B25
:10027000932B228540E4249F90011124822B932B01
:10028000238540E8249F90011124822B932B248105
:10029000922B218530E0322F2227330F330F822B10
:1002A000932B208530E0322F2227330F330F330F6B
:1002B000822B932B238130E0322F22273295307FFF
:1002C000822B932B228130E0322F22273295330F5D
:1002D000307E822B932B808391830E94120308959A
:1002E000CF93DF93EC010E9407031882198281E00B
:1002F0008A831B821C821D828E83188619861A8629
:100300001B8688EE93E0A0E0B0E0888B998BAA8BE7
:10031000BB8B1E8A1F8A80E498E7ADE7B1E0888F27
:10032000998FAA8FBB8F80E29CEBAEEBBDE38C8FE5
:100330009D8FAE8FBF8FCE010E942101DF91CF91A3
:100340000895613069F018F0623029F00DC0FC01A9
:100350001582178209C021E0FC012583178204C0A1
:10036000FC01158221E027830E9421010895CF938B
:10037000DF93EC0188899989AA89BB89841795073D
:10038000A607B70709F44BC0CB01BA01688B798B7C
:100390008A8B9B8B0E94D3032C8D3D8D4E8D5F8D60
:1003A0000E9432030E94A4036C877D878E879F87FB
:1003B00081E08887CE010E9421018C859D859F73F5
:1003C00090640E9412038C859D85AE85BF85072EA3
:1003D0007EE0B695A795979587957A95D1F7702D7C
:1003E0009F7390640E9412038C859D859F73906813
:1003F0000E9412038C859D85AE85BF85072E7EE009
:10040000B695A795979587957A95D1F7702D9F7397
:1004100090680E9412031886CE010E942101DF918C
:10042000CF91089581E080930206E0E0F2E098E049
:10043000918390E1928390E4938397E0948380A3E7
:1004400011A280830895CF93DF93CDB7DEB7A09735
:10045000CDBFDEBF83EF91E00197F1F700C0000050
:10046000CE0101960E94700161E0CE0101960E94CA
:10047000A1010E94120241E050E060E070E0CE0174
:1004800001960E94B701E12C6894FF24F1F80F2E29
:10049000F3E0CF2EF0E2DF2EF02D11E0F70183A183
:1004A00080FFFCCF24A135A1F60120833183F70121
:1004B00013A3F6014481558162817381CB01A0E0D1
:1004C000B0E0840F951FA11DB11DBC01CD01620FCD
:1004D000731F811D911D2BEA3AEA4AEA5AEA0E94EB
:1004E000700400E20E949D04422E532E642E752E4D
:1004F00076946794579447948091012090910220BC
:10050000A0E0B0E0481659066A067B0641F08091EB
:1005100000208F5F809300208F3FB1F403C01092C2
:10052000002012C0B301A2014E5B5109610970485D
:10053000440F551F661F771FCE0101960E94B70119
:100540004092012050920220F6018281938184839F
:1005500095838081918182839383A0CF1F920F9294
:100560000FB60F9211240BB60F928F939F93EF93B8
:10057000FF9380916E20E82FF0E09091A00BE75F51
:10058000FF4D90838F5F843608F080E090916D205E
:10059000891380936E20FF91EF919F918F910F901F
:1005A0000BBE0F900FBE0F901F9018951F920F92C9
:1005B0000FB60F9211240BB60F922F938F939F9328
:1005C000EF93FF938091D3209091D420891769F005
:1005D000E82FF0E0E159FF4D20812093A00B8F5FC1
:1005E000843608F080E0891304C080E28093A30B76
:1005F000892F8093D320FF91EF919F918F912F911D
:100600000F900BBE0F900FBE0F901F901895E0E655
:10061000F6E092E0918384E081839583858381E095
:1006200081830895BC0184E0809366062FE030E06A
:10063000E0E6F6E081E092E0AB01022E02C05695C2
:1006400047950A94E2F740FF02C0858301C0868384
:10065000968300C095832150310970F784E0809320
:10066000650608950E9446030C9427040E94200406
:1006700058F00E94190440F029F45F3F29F00C94CF
:10068000100451110C945B040C9416040E9438045D
:1006900068F39923B1F3552391F3951B550BBB27B1
:1006A000AA2762177307840738F09F5F5F4F220FF6
:1006B000331F441FAA1FA9F335D00E2E3AF0E0E8ED
:1006C00032D091505040E695001CCAF72BD0FE2F37
:1006D00029D0660F771F881FBB1F261737074807CB
:1006E000AB07B0E809F0BB0B802DBF01FF27935883
:1006F0005F4F3AF09E3F510578F00C9410040C9433
:100700005B045F3FE4F3983ED4F386957795679555
:10071000B795F7959F5FC9F7880F911D96958795B7
:1007200097F90895E1E0660F771F881FBB1F6217D6
:1007300073078407BA0720F0621B730B840BBA0B94
:10074000EE1F88F7E09508950E94400488F09F57B7
:1007500098F0B92F9927B751B0F0E1F0660F771FE5
:10076000881F991F1AF0BA95C9F714C0B13091F0DB
:100770000E945A04B1E008950C945A04672F782F10
:100780008827B85F39F0B93FCCF3869577956795A0
:10079000B395D9F73EF490958095709561957F4F0C
:1007A0008F4F9F4F0895E89409C097FB3EF49095B2
:1007B0008095709561957F4F8F4F9F4F9923A9F03A
:1007C000F92F96E9BB279395F695879577956795C9
:1007D000B795F111F8CFFAF4BB0F11F460FF1BC00D
:1007E0006F5F7F4F8F4F9F4F16C0882311F096E9A0
:1007F00011C0772321F09EE8872F762F05C066234E
:1008000071F096E8862F70E060E02AF09A95660F06
:10081000771F881FDAF7880F9695879597F90895BF
:1008200097F99F6780E870E060E008959FEF80ECA3
:10083000089500240A941616170618060906089546
:1008400000240A9412161306140605060895092EAC
:100850000394000C11F4882352F0BB0F40F4BF2B1B
:1008600011F460FF04C06F5F7F4F8F4F9F4F08955B
:1008700057FD9058440F551F59F05F3F71F0479551
:10088000880F97FB991F61F09F3F79F08795089536
:10089000121613061406551FF2CF4695F1DF08C055
:1008A000161617061806991FF1CF86957105610572
:1008B00008940895E894BB2766277727CB0197F91A
:1008C0000895A29FB001B39FC001A39F700D811D29
:1008D0001124911DB29F700D811D1124911D089549
:1008E000E894DF93CF93FC01DB010E9461047F93C6
:1008F0006F93E9019A01AC01BF93AF933F932F939C
:10090000DF010E94610426F46C1B7D0B820B930BAC
:100910009E01EB01FC010E94B904AF91BF912F91A0
:100920003F910E94B904BE01CF01F9012F913F917F
:10093000CF91DF91089597FB10F8169400080F935C
:10094000083098F00850232F342F452F562F672F4B
:10095000782F892F902DF4CF0594979587957795CB
:10096000679557954795379527950A95AAF70F915B
:1009700008950E946104460F571FC81FD91F08F42D
:0809800031960895F894FFCFB1
:00000001FF
