S0170000616439383333696E746572666163652E73726563C0
S11300000C94FE000C941F010C941F010C941F010E
S11300100C941F010C941F010C941F010C941F01DC
S11300200C941F010C941F010C941F010C941F01CC
S11300300C941F010C941F010C941F010C941F01BC
S11300400C941F010C941F010C941F010C941F01AC
S11300500C941F010C941F010C941F010C941F019C
S11300600C941F010C941F010C941F010C941F018C
S11300700C941F010C941F010C941F010C941F017C
S11300800C941F010C941F010C941F010C941F016C
S11300900C941F010C941F010C941F010C941F015C
S11300A00C941F010C941F010C941F010C941F014C
S11300B00C941F010C941F010C941F010C941F013C
S11300C00C941F010C941F010C941F010C941F012C
S11300D00C941F010C941F010C941F010C941F011C
S11300E00C941F010C941F010C941F010C941F010C
S11300F00C941F010C941F010C941F010C941F01FC
S11301000C941F010C941F010C941F010C941F01EB
S11301100C941F010C941F010C941F010C941F01DB
S11301200C941F010C941F010C941F010C941F01CB
S11301300C941F010C941F010C941F010C941F01BB
S11301400C941F010C941F010C941F010C941F01AB
S11301500C941F010C941F010C941F010C941F019B
S11301600C941F010C941F010C941F010C941F018B
S11301700C941F010C941F010C941F010C941F017B
S11301800C941F010C941F010C941F010C941F016B
S11301900C941F010C941F010C941F010C941F015B
S11301A00C941F010C941F010C941F010C941F014B
S11301B00C941F010C941F010C941F010C941F013B
S11301C00C941F010C941F010C941F010C941F012B
S11301D00C941F010C941F010C941F010C948B02AE
S11301E00C94B3020C941F010C941F010C941F0176
S11301F00C941F010C941F010C941F0111241FBEA9
S1130200CFEFCDBFDFE5DEBF00E00CBF10E2A0E022
S1130210B0E2E4ECF8E000E00BBF02C007900D92FE
S1130220A030B107D9F721E2A0E0B0E201C01D92ED
S1130230A739B207E1F70E940B020C9460040C94F6
S11302400000FC01878190E09C01220F331F9681FE
S1130250892F90E0880F991F880F991F880F991F85
S1130260822B932B258140E2249F90011124822B21
S1130270932B228540E4249F90011124822B932BFD
S1130280238540E8249F90011124822B932B248101
S1130290922B218530E0322F2227330F330F822B0C
S11302A0932B208530E0322F2227330F330F330F67
S11302B0822B932B238130E0322F22273295307FFB
S11302C0822B932B228130E0322F22273295330F59
S11302D0307E822B932B808391830E94EF020895BA
S11302E0CF93DF93EC010E94E4021882198281E02B
S11302F08A831B821C821D828E83188619861A8625
S11303001B8680E498E7ADE7B1E08C8B9D8BAE8BC8
S1130310BF8B80E29CEBAEEBBDE3888F998FAA8FF5
S1130320BB8FCE010E942101DF91CF9108956130EE
S113033069F018F0623029F00DC0FC0115821782B3
S113034009C021E0FC012583178204C0FC01158249
S113035021E027830E9421010895CF93DF93EC01CC
S1130360CB01BA010E94B003288D398D4A8D5B8D73
S11303700E940F030E9481036C877D878E879F876D
S113038081E08887CE010E9421018C859D859F7321
S113039090640E94EF028C859D85AE85BF85072EF3
S11303A07EE0B695A795979587957A95D1F7702DA8
S11303B09F7390640E94EF028C859D859F73906863
S11303C00E94EF028C859D85AE85BF85072E7EE059
S11303D0B695A795979587957A95D1F7702D9F73C4
S11303E090680E94EF021886CE010E942101DF91DD
S11303F0CF91089581E080930206E0E0F2E098E076
S1130400918390E1928390E4938397E0948380A313
S113041011A280830895CF93DF93CDB7DEB76C9795
S1130420CDBFDEBF83EF91E00197F1F700C000007C
S1130430CE0101960E94700161E0CE0101960E94F6
S113044097010E94FA01C12C6894DD24D1F803E0DD
S113045010E2772473940F2EFBECEF2EF0E2FF2EC4
S1130460F02D0F2EF4E62F2E312C412C512CF02D93
S1130470F60183A180FFFCCF84A195A1F8018083BC
S11304809183F60173A2E3E0F0E240E050E0BA01A8
S113049081919191480F591F611D711DEE16FF0640
S11304A0B9F7CB01BA01A20191010E943E044901AE
S11304B05A018091012090910220A0E0B0E0281719
S11304C039074A075B0741F0809100208F5F8093D2
S11304D000208B3FB0F003C01092002012C0BA017C
S11304E0A9014E5B510961097048440F551F661FED
S11304F0771FCE0101960E94AD0180920120909257
S11305000220E9ECF0E292918291828393830E17A8
S11305101F07C9F7ADCF1F920F920FB60F92112488
S11305200BB60F928F939F93EF93FF93809130219B
S1130530E82FF0E09091A00BE553FF4D90838F5F7F
S1130540843608F080E090912F2189138093302124
S1130550FF91EF919F918F910F900BBE0F900FBE63
S11305600F901F9018951F920F920FB60F9211249F
S11305700BB60F922F938F939F93EF93FF938091DA
S1130580952190919621891769F0E82FF0E0EF5CAE
S1130590FE4D20812093A00B8F5F843608F080E00D
S11305A0891304C080E28093A30B892F8093952143
S11305B0FF91EF919F918F912F910F900BBE0F9010
S11305C00FBE0F901F901895E0E6F6E092E091833D
S11305D084E081839583858381E081830895BC01D0
S11305E084E0809366062FE030E0E0E6F6E081E008
S11305F092E0AB01022E02C0569547950A94E2F7A9
S113060040FF02C0858301C08683968300C0958322
S11306102150310970F784E08093650608950E94A3
S113062023030C9404040E94FD0358F00E94F60373
S113063040F029F45F3F29F00C94ED0351110C9420
S113064038040C94F3030E94150468F39923B1F35E
S1130650552391F3951B550BBB27AA2762177307E4
S1130660840738F09F5F5F4F220F331F441FAA1F78
S1130670A9F335D00E2E3AF0E0E832D09150504034
S1130680E695001CCAF72BD0FE2F29D0660F771FE2
S1130690881FBB1F261737074807AB07B0E809F0C8
S11306A0BB0B802DBF01FF2793585F4F3AF09E3F4D
S11306B0510578F00C94ED030C9438045F3FE4F397
S11306C0983ED4F3869577956795B795F7959F5F90
S11306D0C9F7880F911D9695879597F90895E1E0DC
S11306E0660F771F881FBB1F621773078407BA073B
S11306F020F0621B730B840BBA0BEE1F88F7E09596
S113070008950E941D0488F09F5798F0B92F9927E7
S1130710B751B0F0E1F0660F771F881F991F1AF0E8
S1130720BA95C9F714C0B13091F00E943704B1E012
S113073008950C943704672F782F8827B85F39F011
S1130740B93FCCF3869577956795B395D9F73EF481
S113075090958095709561957F4F8F4F9F4F089529
S1130760E89409C097FB3EF4909580957095619547
S11307707F4F8F4F9F4F9923A9F0F92F96E9BB27FD
S11307809395F695879577956795B795F111F8CF79
S1130790FAF4BB0F11F460FF1BC06F5F7F4F8F4FE4
S11307A09F4F16C0882311F096E911C0772321F0DA
S11307B09EE8872F762F05C0662371F096E8862F72
S11307C070E060E02AF09A95660F771F881FDAF7C9
S11307D0880F9695879597F9089597F99F6780E80C
S11307E070E060E008959FEF80EC089500240A947F
S11307F01616170618060906089500240A941216F8
S11308001306140605060895092E0394000C11F42A
S1130810882352F0BB0F40F4BF2B11F460FF04C0D7
S11308206F5F7F4F8F4F9F4F089557FD9058440F30
S1130830551F59F05F3F71F04795880F97FB991F3B
S113084061F09F3F79F087950895121613061406F8
S1130850551FF2CF4695F1DF08C016161706180685
S1130860991FF1CF86957105610508940895E89460
S1130870BB2766277727CB0197F90895A1E21A2EA3
S1130880AA1BBB1BFD010DC0AA1FBB1FEE1FFF1F30
S1130890A217B307E407F50720F0A21BB30BE40B80
S11308A0F50B661F771F881F991F1A9469F76095C7
S11308B07095809590959B01AC01BD01CF01089581
S10708C0F894FFCFD6
S9030000FC
